{
  "contractName": "Counter",
  "abi": [
    {
      "inputs": [],
      "name": "increment",
      "outputs": [],
      "stateMutability": "nonpayable",
      "type": "function"
    },
    {
      "inputs": [],
      "name": "decrement",
      "outputs": [],
      "stateMutability": "nonpayable",
      "type": "function"
    },
    {
      "inputs": [
        {
          "internalType": "uint256",
          "name": "x",
          "type": "uint256"
        }
      ],
      "name": "addValue",
      "outputs": [],
      "stateMutability": "nonpayable",
      "type": "function"
    },
    {
      "inputs": [
        {
          "internalType": "uint256",
          "name": "x",
          "type": "uint256"
        }
      ],
      "name": "set",
      "outputs": [],
      "stateMutability": "nonpayable",
      "type": "function"
    },
    {
      "inputs": [],
      "name": "get",
      "outputs": [
        {
          "internalType": "uint256",
          "name": "",
          "type": "uint256"
        }
      ],
      "stateMutability": "view",
      "type": "function"
    }
  ],
  "bytecode": "0x608060405234801561001057600080fd5b506102ae806100206000396000f3fe608060405234801561001057600080fd5b50600436106100575760003560e01c80632baeceb71461005c5780635b9af12b1461006657806360fe47b1146100825780636d4ce63c1461009e578063d09de08a146100bc575b600080fd5b6100646100c6565b005b610080600480360381019061007b9190610168565b6100e2565b005b61009c60048036038101906100979190610168565b6100fe565b005b6100a6610108565b6040516100b391906101a4565b60405180910390f35b6100c4610111565b005b60016100d0610108565b6100da91906101ee565b600081905550565b806100eb610108565b6100f59190610222565b60008190555050565b8060008190555050565b60008054905090565b600161011b610108565b6101259190610222565b600081905550565b600080fd5b6000819050919050565b61014581610132565b811461015057600080fd5b50565b6000813590506101628161013c565b92915050565b60006020828403121561017e5761017d61012d565b5b600061018c84828501610153565b91505092915050565b61019e81610132565b82525050565b60006020820190506101b96000830184610195565b92915050565b7f4e487b7100000000000000000000000000000000000000000000000000000000600052601160045260246000fd5b60006101f982610132565b915061020483610132565b925082821015610217576102166101bf565b5b828203905092915050565b600061022d82610132565b915061023883610132565b9250827fffffffffffffffffffffffffffffffffffffffffffffffffffffffffffffffff0382111561026d5761026c6101bf565b5b82820190509291505056fea264697066735822122055721aa6b669da7da16f247d247febb34dc4b713e70470fbf2a3c6f5b1fae5c464736f6c634300080b0033",
  "immutableReferences": {},
  "source": "// SPDX-License-Identifier: GPL-3.0\r\npragma solidity ^0.8.11;\r\n\r\ncontract Counter {\r\n    uint256 storedData;\r\n\r\n    function increment() public {\r\n        storedData=get()+1;\r\n    }\r\n\r\n    function decrement() public {\r\n        storedData = get()-1;\r\n    }\r\n\r\n    function addValue(uint256 x) public {\r\n        storedData=get()+x;\r\n    }\r\n\r\n    function set(uint256 x) public {\r\n        storedData=x;\r\n    }\r\n\r\n    function get() public view returns (uint256) {\r\n        return storedData;\r\n    }\r\n}\r\n",
  "sourcePath": "C:\\Users\\cofee\\OneDrive\\Робочий стіл\\наброски\\contracts\\blockchain\\contracts\\contracts\\Counter.sol",
  "compiler": {
    "name": "solc",
    "version": "0.8.11+commit.d7f03943.Emscripten.clang"
  },
  "schemaVersion": "3.4.7",
  "updatedAt": "2022-04-22T11:02:06.255Z",
  "devdoc": {
    "kind": "dev",
    "methods": {},
    "version": 1
  },
  "userdoc": {
    "kind": "user",
    "methods": {},
    "version": 1
  }
}